:020000040800F2
:10000000902D002059030008CB3A000865390008FC
:10001000C93A0008F1150008234300080000000059
:100020000000000000000000000000004502000881
:100030000D16000800000000A1020008853D000820
:1000400073030008730300087303000873030008B8
:1000500073030008730300087303000873030008A8
:100060007303000873030008730300087303000898
:1000700073030008F5150008011600087303000853
:100080007303000873030008E515000873030008F4
:100090007303000873030008730300087303000868
:1000A00073030008253E000873030008730300086B
:1000B0007303000873030008730300087303000848
:1000C0007303000873030008730300087303000838
:1000D0007303000873030008730300087303000828
:1000E0007303000873030008730300087303000818
:1000F0007303000873030008730300087303000808
:1001000073030008730300087303000873030008F7
:1001100073030008730300087303000873030008E7
:1001200073030008730300087303000873030008D7
:1001300073030008730300087303000873030008C7
:1001400073030008730300087303000873030008B7
:1001500073030008730300087303000873030008A7
:100160007303000873030008730300087303000897
:100170007303000873030008730300080000000005
:10018000730300087303000800F002F800F04BF856
:100190000AA090E8000C82448344AAF10107DA45E2
:1001A00001D100F040F8AFF2090EBAE80F0013F0E9
:1001B000010F18BFFB1A43F00103184760780000D5
:1001C00080780000103A24BF78C878C1FAD8520766
:1001D00024BF30C830C144BF04680C6070470000C1
:1001E0000023002400250026103A28BF78C1FBD840
:1001F000520728BF30C148BF0B607047662906F020
:10020000D286002070471FB506F0C3FE00F099F9B2
:1002100000F0A6FC04000020002106F005F9E060D3
:100220001FBD10B510BD00F09FFD1146FFF7EBFF9D
:1002300004F000FA00F0BDFD03B4FFF7F2FF03BCC9
:1002400000F000FE2C4B1968086800F05AB880F3E3
:100250000988BFF36F8F4FF0000080F3118870475B
:100260000000000008480068006880F308884FF02C
:10027000000080F3148862B661B6BFF34F8FBFF3FE
:100280006F8F00DF00BF00BF08ED00E0DFF80C005B
:10029000016841F470010160704700BF88ED00E023
:1002A000EFF30980BFF36F8F134B1A681EF0100F26
:1002B00008BF20ED108A20E9F04F106009B44FF01C
:1002C000500080F31188BFF34F8FBFF36F8F05F09D
:1002D000F3FA4FF0000080F3118809BC1968086830
:1002E00000F014B81EF0100F08BF00F014B880F32F
:1002F0000988BFF36F8F704728000020EFF3058057
:10030000704730C8B0E8C04FFFF7A1BF30C8B0E8B1
:10031000C04FFFF7E7BFB0EC088AB0EC08CAFFF7A0
:10032000E6BF00000B49D1F800C04A685CF8043B06
:100330001068184442F8040B8C4528BFA1F1DC0C6E
:100340008A4228BFA1F1DC02C1F800C04A6020F057
:100350000040704728270020094880470948004787
:10036000FEE7FEE7FEE7FEE7FEE7FEE7FEE7FEE765
:10037000FEE7FEE704480549054A064B70470000C2
:10038000153E00088901000890270020902D0020CC
:10039000902900209029002053EA020C00F0698087
:1003A0002DE9F04B4FF00006002B1FBFB3FA83F589
:1003B00003FA05F424FA05F65E4012BF1643B2FABA
:1003C00082F502FA05F4C5F120051EBF22FA05FCEC
:1003D00044EA0C04203556EA044C4FEA144418BF92
:1003E000641C4FF000084FF00009904271EB030CC1
:1003F00039D3002919BFB1FA81F701FA07F6B0FA2B
:1004000080F700FA07F6C7F120071EBF20FA07FCA5
:1004100046EA0C062037B6FBF4FCA7EB0507103FB5
:1004200007F01F0BCBF120060CFA0BFB2CFA06F69B
:1004300044BFB3460026202FA4BF5E464FF0000BFA
:100440005BEA060C08BF4FF0010B19EB0B09ABFB85
:10045000027C48EB0608C01B06FB02CC0BFB03CC5E
:1004600071EB0C01C1E70B46024641464846BDE828
:10047000F08B13B54FF000004FF00001AFF3008098
:10048000BDE81C40704700000FB41CB5074B06AA1E
:100490007B4469460090059800F0F5FA0020694613
:1004A00000F004FB1CBC5DF814FB00001906000002
:1004B0002DE9F0410E460446002020622046E16806
:1004C000884730B3252805D0D4E901219047206A18
:1004D000401CF2E7E168204600278847050018D055
:1004E000A5F14100192802D820354FF400673246A3
:1004F000294620462760FFF781FE40B1012804D03D
:10050000F61D26F007060836D8E7361DD6E728463A
:10051000DAE7206ABDE8F0810B4910B5A1F17C0251
:100520000A4CC2E93712372106E000EB104342F8CB
:100530002130074B00FB03400B1EA1F10101F4DC4D
:1005400010BD0120E8E70000C8260020E119D666AA
:10055000CD0D0100032A40F2308010F0030C00F0B2
:10056000158011F8013BBCF1020F624498BF11F8ED
:1005700001CB00F8013B38BF11F8013BA2F10402A6
:1005800098BF00F801CB38BF00F8013B11F003031E
:1005900000F09182083AC0F0088051F8043B083A14
:1005A00051F804CBA0E80810F5E7121D5CBF51F824
:1005B000043B40F8043BAFF30080D20724BF11F89E
:1005C000013B11F801CB48BF11F8012B24BF00F803
:1005D000013B00F801CB48BF00F8012B704702F047
:1005E000FF0343EA032242EA024200F098BA4FF0C6
:1005F000000200B5134694469646203922BFA0E873
:100600000C50A0E80C50B1F12001BFF4F7AF09077E
:1006100028BFA0E80C5048BF0CC05DF804EB89006F
:1006200028BF40F8042B08BF704748BF20F8022BB2
:1006300011F0804F18BF00F8012B704770477047CA
:10064000704710B500F090FA006810BD10B5044670
:1006500000F08AFA046010BD70472DE9FF4F0C4688
:100660001E464FF0FF378BB0D2E90001DDF8608005
:100670000A908A46C1F30A5505B93D46002108464D
:100680004FF00000BAF1000F00F4400005DA00EB73
:1006900080004FF4400101EA50004FEA9059B9F14F
:1006A000010F00DDB9460A9850EA4A000ED044F620
:1006B0001050A5F2FF3545432F14B8F1000F1ED09E
:1006C0007542291E1EDDC9F100021CE0B8F1010FC0
:1006D0004FF0000001D0302103E0F24305E0215447
:1006E000401CB042FBDB30460022002121540B9914
:1006F000C1F80880C1E900200FB000F0BCB9BD1BF3
:100700006D1CDEE74A4600DA694206A800F0B6FA38
:1007100006AB93E8070003AB83E8070050460A994D
:1007200000F097FB8DE80700A0F500501F380090FF
:100730000398002D0ADD42F21F014A4608440023B7
:1007400003A90390684600F000FE09E0A0F5005000
:100750004A461F38002303A90390684600F00AFEAA
:100760008DE807000004000C03D04FF0FF30410873
:1007700000E01046B8F1000F03D0002200921546A9
:100780001EE0751E05D400F0F3F9303262556D1E7F
:10079000F9D5B3460122084302D000227F1C04E0B1
:1007A0002078302801D100227F1E002A099784D0AA
:1007B0001DE0112D07DA00F0DBF9303262556D1CB7
:1007C00050EA0102F5D1084302D00098C8B10EE00A
:1007D0000021681E05E0235C625C63542254401EC5
:1007E000491C8142F7DBAB46A81B401E0990002044
:1007F00004F80B000B98099AC0F80880C0E9002B98
:100800007AE711264FF0000857E72DE9F04F8846A8
:100810000446D21D22F0070191B0D1E90001CDE9D3
:100820000A0103F07FFD02460B98C00F01D02D2076
:1008300007E02068810701D52B2002E0202101EA92
:10084000C000032A099001D0072A05DB0346414670
:10085000204600F0D3F90BE12078800601D5E0694D
:1008600000E00620B8F1650F814606D0B8F1660FAA
:1008700018D0B8F1670F70D131E00020B9F1110F35
:10088000009001DB112301E009F101030AAA01A98B
:100890000CA8FFF7E2FEDDE90C70002609F1010566
:1008A000834647E001204B4600904FF000470AAADC
:1008B00001A90CA8FFF7D1FEDDE90DB00C995D464A
:1008C000002610B909F101000D18B9EB050003D499
:1008D000C0F1FF3609F10105A5EB09002BE0B9F1E4
:1008E000010F01DA4FF001090020B9F1110F00905A
:1008F000484601DD112300E003460AAA01A90CA81D
:10090000FFF7ABFEDDE90C704D46002683462078EC
:1009100000070AD4AB4500DA5D4601A8012D04DDCD
:10092000411911F8011C302907D04F4502DA17F19F
:10093000040F04DA012082460FE06D1EEEE7002F5F
:1009400002DCED1B3E4403E0781CA84200DD7D1C68
:10095000B81B00F1010A4FF000472078000703D4CC
:10096000AA4501DB4FF0FF3A0021B7F1004F0DF12E
:1009700043088DF8431024D002202B23002F01DAE6
:100980007F422D230A21021EA0F1010000DC5FB18D
:1009900097FBF1FC97FBF1F201FB1C7C17460CF175
:1009A000300C08F801CDEEE7A8F1010003702188B2
:1009B000090501D5452100E06521A0F1010800F8F5
:1009C000011C09980FA9A1EB0807FF1D00B1012028
:1009D000411901EBEA70A1693844081A401EA06170
:1009E0002078C00602D42046AFF30080099828B1D1
:1009F000D4E901219047206A401C20622078C0067B
:100A000022D52046AFF300801EE0002E04DBB34564
:100A100002DD01A8805D00E03020D4E9012190478B
:100A2000206A401C2062761CAAF101005FEA000ADD
:100A30000AD100F095F8C0680168405CD4E9012152
:100A40009047206A401C2062281EA5F10105DCDCCD
:100A500007E0D4E9012118F8010B9047206A401CF7
:100A60002062381EA7F10107F3DC2046AFF30080B7
:100A7000032011B041E630BCBDE8C08F01694A1CBB
:100A800002610878704700B58FB0CDE901310021CF
:100A9000059105497944CDE9031011466846FFF7F1
:100AA00007FD0FB000BD0000E5FFFFFF0A6802F878
:100AB000010B0A60704710B5203AC0F00B80B1E816
:100AC0001850203AA0E81850B1E81850A0E8185083
:100AD000BFF4F5AF5FEA027C24BFB1E81850A0E88C
:100AE000185044BF18C918C0BDE810405FEA827CA6
:100AF00024BF51F8043B40F8043B08BF7047D207BD
:100B000028BF31F8023B48BF11F8012B28BF20F85D
:100B1000023B48BF00F8012B70474FF00002042948
:100B2000C0F0128010F0030C3FF463ADCCF1040C64
:100B3000BCF1020F18BF00F8012BA8BF20F8022B50
:100B4000A1EB0C01FFF755BD5FEAC17C24BF00F8A3
:100B5000012B00F8012B48BF00F8012B7047000063
:100B60000048704750270020004870473027002079
:100B700030B5B0F10A024FEA900E71F100034EEA6F
:100B8000817EB0EB0E0061EB91014FEA101E4EEA40
:100B9000017E10EB0E0041EB11114FEA102E4EEAD0
:100BA000016E10EB0E0041EB11214FEA104E4EEAA0
:100BB000014E10EB0E0041EB1141401841F10001D4
:100BC0004FEAD00040EA41704FEAD10110EB8005B6
:100BD0004FEA810444EA907444EB01046D1944EB3C
:100BE0000404521BA3414FF0000348BF0A3200D552
:100BF00030BD401C41F1000130BD00002DE9F04145
:100C00001F46044603260168072A01F4006004DB3E
:100C100008B116A505E016A503E008B115A500E08A
:100C200015A521F010002060A069C01EA0610FB1C1
:100C3000401EA0612046AFF300804FB1D4E90121EE
:100C400038469047206A401C2062C01C206206E0A3
:100C5000206AFAE7D4E9012115F8010B9047761EC6
:100C6000F8D22046AFF30080BDE8F0814E414E003F
:100C70006E616E00494E4600696E66002DE9F047D0
:100C8000814616468AB0354878440DC88DE80D0077
:100C900032487844801C03AC0DC884E80D0041F64E
:100CA0009B300844372190FBF1F290FBF1F5A5F160
:100CB000800501FB12041B3C02D56442012000E0C8
:100CC0000020DFF898A080460027FA44AAF1BE0A67
:100CD0000EE0E0070AD03246684607EB47010123E1
:100CE0000AEB810100F046FB8DE8070064107F1CD1
:100CF000002CEED1194F7F44AE3F19E0E80715D024
:100D000007EB04100DF1180A90E80E008AE80E00B7
:100D1000C068F04201D1981908903246012306A913
:100D200003A800F027FB03AB83E807006D10641CE9
:100D3000002DE3D14FF0010332466946B8F1000FB0
:100D400003A802D000F001FB01E000F013FBC9E9A9
:100D50000001C9F808200AB0BDE8F087386D00002E
:100D600000487047302700207546FFF7F9FFAE4670
:100D700005006946534620F00700854618B020B5A7
:100D8000FFF7F8FABDE820404FF000064FF00007EB
:100D90004FF000084FF0000B21F00701AC46ACE823
:100DA000C009ACE8C009ACE8C009ACE8C0098D4690
:100DB000704710B50446AFF300802046BDE81040F0
:100DC000FFF73ABA4FF0013C50F8042B51F8043BBE
:100DD0009A4221D1A2EB0C03934313EACC1317D10F
:100DE00050F8042B51F8043B9A4215D1A2EB0C03A6
:100DF000934313EACC130BD150F8042B51F8043B66
:100E00009A4209D1A2EB0C03934313EACC13DBD033
:100E10004FF00000704700BFD01A01BAB1FA81F15B
:100E200001F0180122FA01F0CB40C1F12001DBB240
:100E3000C0B2C01A2CFA01F3D11A914311EAC311BE
:100E4000E6D1704701491820ABBEFEE7260002003C
:100E500070475FEA400C08BF91F0000F4FEA8C2307
:100E60004FEAC12243EA51514FEA1C5018BF00F526
:100E7000F0404FEA300018BF41F000415FEA6C5C7F
:100E800000F02980BCF1FF3F08BF40F08040704770
:100E9000130C06BF12044FF0100C4FF0000C130E91
:100EA00004BF12020CF1080C130F04BF12010CF165
:100EB000040C930F04BF92000CF1020CD30F04BF7B
:100EC00052000CF1010C11464FF00002A0F11F007E
:100ED000A0EB0C00704711F0004F08BF704731F0D5
:100EE00000413FF4D5AF0B0C06BF09044FF0100CC6
:100EF0004FF0000C0B0E04BF09020CF1080C0B0F95
:100F000004BF09010CF1040C8B0F04BF89000CF124
:100F1000020CCB0F04BF49000CF1010CCCF12003F3
:100F2000A0EB0C0022FA03F302FA0CF241EA0301EF
:100F300000F10100704720F07F4C80EA030023F0AD
:100F40007F47ACEB070303F57C5300F0004003F14F
:100F5000FF032DE980494FEA154B09B44FEA1443CA
:100F600025EA0B4E24EA03480FF2042606EB13276A
:100F700049083E785FEA320203FB0667C7F50007BF
:100F800007FB06F64FEA54374FEAD64606F102064B
:100F900007FB066CCCF1005C4FEA1C472CEA074CBF
:100FA00007FB06F40CFB06F504EB15464FEA961614
:100FB00034BF00204FF000404FEAD13706FB07FC5A
:100FC0004FEA1C4C0CFB0BF7D21B03FB0CF761EB3D
:100FD00007010CFB0EF7B0EB074072EB17420CFB5E
:100FE00008F734BFA2EB0742B2EB074261EB1741AF
:100FF0004FEA0C444FEA910706FB07FC4FEA1C4CF2
:101000000CFB0BF7B0EBC74072EB573203FB0CF74E
:1010100034BFA2EBC742B2EBC74261EB57310CFBC6
:101020000EF7B0EBC70072EB57720CFB08F734BF3A
:10103000A2EBC702B2EBC70261EB5771039F4FEA05
:10104000816141EA921104EBCC044FEAD1374FEAB7
:10105000826206FB07FC42EA90124FEA80604FEA88
:101060001C4C0CFB0BF7D21B03FB0CF761EB0701CD
:101070000CFB0EF7B0EB074072EB17420CFB08F7C6
:1010800034BFA2EB0742B2EB074261EB17414FEAD4
:101090008C554FEA910704EB9C2406FB07FC4FEAB2
:1010A0001C4C0CFB0BF7B0EBC74072EB573203FB49
:1010B0000CF734BFA2EBC742B2EBC74261EB57312A
:1010C0000CFB0EF7B0EBC70072EB57720CFB08F786
:1010D00034BFA2EBC702B2EBC70261EB577115EB4D
:1010E0004C254FEA816141EA92114FEA82624FEA50
:1010F000D13742EA901206FB07FC44F100044FEAA4
:1011000080604FEA1C4C0CFB0BF7D21B03FB0CF767
:1011100061EB07010CFB0EF7B0EB074072EB1742D7
:101120000CFB08F734BFA2EB0742B2EB074261EBBE
:10113000174115EB1C154FEA813141EA92414FEA04
:10114000823242EA90424FEA80304FEA0C7644F114
:10115000000448EA03434EEA0B484FF0000EB2EB9E
:10116000080C71EB030724BF624639464EEB0E0EA6
:101170004FF0000B0018524149414BEB0B0BB2EB07
:10118000080C71EB03077BF1000B24BF6246394664
:101190004EEB0E0E4FF0000B0018524149414BEB45
:1011A0000B0BB2EB080C71EB03077BF1000B24BFB8
:1011B000624639464EEB0E0E51EA020718BF46F062
:1011C000010616EB0E7655F1000254F1000103D52D
:1011D000BDE88901BDE80088BDE88901BDE8004897
:1011E000B619524141EB0101A3F101037047808020
:1011F0007F7E7D7C7B7A7978777676757473727171
:1012000071706F6E6E6D6C6C6B6A6A696868676628
:1012100066656464636362616160605F5F5E5E5DBA
:101220005D5C5C5B5B5A5A5959585857575656552E
:1012300055555454535352525251515050504F4F90
:101240004F4E4E4D4D4D4C4C4C4B4B4B4A4A4A49E0
:101250004949484848474747474646464545454423
:101260004444444343434342424242414141002BB0
:101270009C4630D477002BD01CB54FEA370703B417
:101280004FF010004FF01001BAF1000F06D0BCF182
:10129000000FDCBF40F0080040F008014FF00000F4
:1012A0000FBCBDE810400BF1010BBBF1010F08BFF3
:1012B0005FEA170722BF12F1010211F101014FF09D
:1012C000004143F1000300F0004043EA0000704792
:1012D000F9D35708D0E746EA064613F1400F4FEA24
:1012E00016461FDD13F1200FDFBF16430A4600210B
:1012F00020335B42BED0C3F1200746EA064602FA1D
:1013000007F74FEA164646EA0706C3F1200722FA16
:1013100003F201FA07F721FA03F14FF0000342EA62
:101320000702A7E746EA020646EA06464FEA1646DD
:1013300046EA0106BCBF46EA0646360C4FF00003FB
:101340004FF000024FF0000194E72DE9804C9A46DF
:10135000934670B491E8380007C831EA400C48BFA2
:1013600034EA430C03D5FFF7E6FDFFF780FFF0BC3E
:10137000BDE8008C2DE9804C9A46934670B491E804
:10138000380007C810F0804F08BF13F0804F03D11A
:1013900000F005F8FFF76BFFF0BCBDE8008C20F013
:1013A0007F4780EA030023F07F4C07EB0C03A3F593
:1013B0007C5300F00040A3F1FE0392F0000F00F018
:1013C000B38095F0000F00F077802DE901494FEAD6
:1013D00011404FEA144621EA004800FB06FC24EACB
:1013E000064708FB06F607FB08F800FB07F718EBB3
:1013F00006484CEB164C4FEA124B18EB07484FEAE5
:1014000015464CEB174022EA0B4E0BFB06FC25EA77
:1014100006470EFB06F607FB0EFE0BFB07F71EEB5F
:10142000064E4CEB164C4FF000061EEB074E4CEBF5
:10143000174B18EB0B0840F1000018EB0E0B58EBA4
:10144000000840F100008F1A4FF000013CBFC94373
:10145000661B14BFB5EB040C00213CBFC943F61B4F
:101460004FEA17444EEA8E0E27EA04454FEA1C471E
:1014700004FB07622CEA074C05FB07F70CFB05F69B
:1014800004FB0CFC16EB074642EB174216EB0C462E
:1014900042EB1C421BEB060658EB0202414146EAB6
:1014A0009E0601D5BDE80189B619524141EB010103
:1014B000A3F10103BDE801894FEA14454FEA114742
:1014C00024EA054621EA074C05FB07F406FB07F76B
:1014D0000CFB06F105FB0CFC11EB074144EB174438
:1014E0004FEA124711EB0C4144EB1C4422EA074C33
:1014F00005FB07F206FB07F70CFB06F605FB0CFCE9
:1015000016EB074642EB174216EB0C4642EB1C4526
:101510006A1854F1000148BF7047B619524141EBB7
:101520000101A3F10103704795F0000F37D04FEA96
:1015300011424FEA144721EA024624EA074C02FB13
:1015400007F106FB07F70CFB06F402FB0CFC14EB9F
:10155000074441EB17414FEA154714EB0C4441EBAC
:101560001C4125EA074C02FB07F506FB07F70CFBBD
:1015700006F602FB0CFC16EB074645EB174516EB8F
:101580000C4645EB1C42121951F1000148BF70474F
:10159000B619524141EB0101A3F1010370474FEA33
:1015A00014454FEA114724EA054621EA074C05FB9A
:1015B00007F106FB07F70CFB06F24FF0000605FBF0
:1015C0000CFC12EB074241EB174112EB0C4251EBC2
:1015D0001C4148BF7047921841EB0101A3F1010380
:1015E00070470000014800F0BBBB0000A8000020CD
:1015F000FEE70000014800F06EBF0000E40C002090
:10160000014800F068BF00002C0D0020704772B642
:10161000FEE700009FED1A1AF5EE000A40EE010AFF
:10162000BDEEE00AF5EEC00A10EE100AF1EE10FA77
:1016300000D2401E00EE100A1349F7EE001AB8EE71
:10164000C00A30EEC00ADFED0F0A20EE200AFCEEE1
:10165000C00A10EE900AC0F3080000EE900A01EBF9
:101660008000F8EE600A90ED011A70EE600A90EDCD
:10167000000A71EEE01A21EE800A00EE810A70473E
:1016800083F9223E00000044AC6F0008DFED190A28
:10169000B5EEC00A60EE200ABDEEE01A11EE100AA7
:1016A000F1EE10FA00D2401E00EE100A1349F7EED8
:1016B000001AB8EEC00A30EEC00ADFED0F0A60EE85
:1016C000200ABCEEE00A10EE100AC0F3080000EE9B
:1016D000100A01EB8000B8EE400A90ED011A70EE9E
:1016E000C00A90ED000A71EEE01A21EE800A00EEC9
:1016F000810A704783F9223E00000044AC6F000865
:1017000000B5F0EE401A00F003F820EE210A00BD0B
:1017100010EE100A9FED091A0749A1EB500020EEC8
:10172000010A00EE900A20EE201A9FED050A01EE54
:10173000600A20EE200A704712141F5F12D3363F52
:10174000FF51D83F2DE9F047814615460E461C460D
:10175000184605F0F9F841EC100B9FED261B02F03E
:1017600009FE9FED261B51EC100B53EC112B05F0DD
:10177000AFF800D1641C601EDFED220A00EBD070D0
:1017800001214FEA600CC6ED000A6F1E2AE09FEDB2
:101790001E0A614503DA00234800421C15E001EBF4
:1017A0000C00B84206DD481B4318681E5B1CC21AB9
:1017B000521C0AE0A1EB0C03224606E009EB830869
:1017C0005B1C98ED001A31EE000A8342F6DD01EE53
:1017D000102A06EB8100491CB8EEC11AC0EE011AAE
:1017E000C0ED001AB942D2DB06EB850040ED010ADC
:1017F000BDE8F0870000000000000040000000008D
:101800000000000000C0CC440000000008B50E4DF0
:101810004FF6FF764FF4B4743346002269462869C8
:1018200003F07CF860B909496423224601F5B460ED
:10183000FFF788FF0549224601F5B46003F0E6FD95
:10184000012003F02FF8E7E700000020A4010020AA
:101850007047704770477047704700002DE9F047A8
:10186000044690F850009AB00E464FF00009012847
:1018700016D0012084F85000002515951695324F9A
:101880002068B84210D1DFF8C480CDF8008040460F
:1018900002F077F88246206802F073F860B10EE03B
:1018A00002201AB0BDE8F087606D40F0200060654E
:1018B00084F850500120F4E7BAF1000F0AD0606DAF
:1018C00040F0200060654FF0010900BF84F85050DF
:1018D0004846E6E71E4831681E4A0029816840F6FE
:1018E0001F7321F460411CD094F830C041EA4C31A0
:1018F000D6F804C041EA0C018160B968D8F80870D4
:1019000001F0010107F001079268394302F001027A
:101910001143DBD1B2683168114382689A431143A5
:101920000FE08160B968D8F8086001F0010106F0A5
:1019300001069268314302F001021143C6D1816869
:1019400099438160C2E70000000004500001045088
:1019500000030450000204502DE9F84F002704460C
:10196000009790F85000DFF8BC930D46B846012868
:1019700011D0012684F85060206801F0FEFF60B1AC
:10198000606D40F0200060655FF0010784F85080D2
:10199000384600F0DFB90220FBE768680C23052811
:1019A00012D8022807D0032807D0042807D005281A
:1019B00007D0062007E06B6006E0122003E0182045
:1019C00001E04FF480706860D5E90021206803EAE7
:1019D00091131844036B01F01F014FF01F0C0CFA18
:1019E00001FCC2F3846223EA0C038A4013430363BD
:1019F000206801F0C2FF8246206801F0BAFF5AEA6F
:101A000000001DD1AA682968206801F0C6FF20687F
:101A10006969C268C2F3C102520091402A69042A6E
:101A20000FD000EB82002B68026EDFF8FCC203F0DF
:101A3000F84302EA0C020B431A4342F000410166EC
:101A400072E0002101F08FFF400320684FF0000199
:101A500072D001F088FF90FAA0F0B0FA80F1286807
:101A600042036ED090FAA0F0B0FA80F0814204D127
:101A700000221146206801F09FFF0121206801F03B
:101A800072FF400320684FF001015DD001F06BFF51
:101A900090FAA0F0B0FA80F12868420359D090FA89
:101AA000A0F0B0FA80F0814204D100220121206828
:101AB00001F082FF0221206801F055FF40032068F9
:101AC0004FF0020148D001F04EFF90FAA0F0B0FABA
:101AD00080F12868420344D090FAA0F0B0FA80F078
:101AE000814204D100220221206801F065FF032118
:101AF000206801F038FF400320684FF0030133D025
:101B000001F031FF90FAA0F0B0FA80F128684203AA
:101B10002FD090FAA0F0B0FA80F0814204D10022D8
:101B20000321206801F048FF2068816811F0010F4F
:101B300022D0ACE000E004E001F015FFC0F38461C6
:101B40008DE7C0F3846091E701F00DFFC0F384617D
:101B5000A2E7C0F38460A6E701F005FFC0F384614B
:101B6000B7E7C0F38460BBE701F0FDFEC0F384611A
:101B7000CCE7C0F38460D0E72A7B296850F8B03FF7
:101B8000C1F3120C23EA0C0302F0180C674A22FA84
:101B90000CF20A4013430360E968494577D128688D
:101BA00041031CD090FAA0F1B1FA81F1491C01F077
:101BB0001F0109294FEA403132D8002912D000BF55
:101BC00090FAA0F1B1FA81F101F1010101F01F01D8
:101BD00006FA01F609D100BFC0F3846109E0C0F341
:101BE0008461E3E7C0F38461EEE790FAA0F1B1FA13
:101BF00081F101F1010101F01F0146EA816102D189
:101C0000C0F3846003E090FAA0F0B0FA80F000F135
:101C1000010000F01F0000EB400041EA005132E0FB
:101C200000290ED090FAA0F1B1FA81F101F1010181
:101C300001F01F0106FA01F606D100BFC0F384616E
:101C400006E0C0F38461F1E790FAA0F1B1FA81F106
:101C500001F1010101F01F0146EA816102D1C0F3E7
:101C6000846003E090FAA0F0B0FA80F000F1010087
:101C700000F01F002E4A00EB400002EB005041EA4A
:101C8000000141F00071AA68206801F086FE294831
:101C90002A6802423FF47AAE27488168274E284BD3
:101CA000284D01F0E071B2421DD10E021BD4226812
:101CB0009A4202D0AA427FF469AE826841F40001E0
:101CC00022F0E0720A4382601F4820490068B0FB9E
:101CD000F1F0401C00EB4000800000E0401E00904E
:101CE0000028FBD152E61A4EB24209D1CE0107D4E8
:101CF00022689A4201D0AA42F4D141F080710AE0F0
:101D00006FF00045EA42EDD14A02EBD422689A42D4
:101D1000E8D141F48001826822F0E0720A438260D7
:101D200034E6000000007F4000F0FF03FFFF0700E3
:101D3000000020FE0000088000030450000052C78D
:101D4000000004500002045024000020400D030055
:101D5000000084CB18BCBDE8E08F704770470000DE
:101D60002DE9F05F0446006806684568DFF854B264
:101D7000DBF8080000F01F07B0070ED5A8070CD548
:101D8000606DC00603D4606D40F40060606520465D
:101D9000FFF75EFD216802200860DFF82CA2DFF863
:101DA0002C82700701D5680703D4300737D5280780
:101DB00035D5606DC00603D4606D40F40070606579
:101DC000206801F0E2FD20B32068504501D1424671
:101DD00000E00246824208D03FB1052F05D0092F0E
:101DE00003D0504503D1414602E0C16801E00146FD
:101DF000C96889040DD4016809070AD501F0BDFD41
:101E000058B3606D40F010006065A06D40F00100B7
:101E1000A0652046FFF7A1FF21680C200860B006EE
:101E200001D5A80603D4700658D5680656D5606D4E
:101E3000C00603D4606D40F4005060652068C16C3A
:101E400011F0C00F1AD00021894601F09EFD024614
:101E50002068504514D1434613E02068416821F0C2
:101E60000C014160606D20F480706065606DC0049D
:101E7000CFD4606D40F001006065CAE70121E3E75F
:101E80000346834208D03FB1062F05D0072F03D069
:101E9000504503D1414602E0C16801E00146C968EE
:101EA000B9F1000F14D08B0102D58AB18A040FD486
:101EB000026852060CD589020AD401F05AFDE8B333
:101EC000606D40F010006065A06D40F00100A065FD
:101ED0002046FFF7BEFC21686020086030060BD565
:101EE000280609D5606D40F480306065204600F01A
:101EF0005DF9216880200860F0050CD5E8050AD559
:101F0000606D40F4003060652046FFF7A4FC216856
:101F10004FF480700860B0050CD5A8050AD5606D37
:101F200040F4802060652046FFF796FC21684FF45E
:101F300000700860F0062ED5E80600E008E02AD51B
:101F4000606BD0B1AFB1DBF8080000F4604013E083
:101F50002068416821F060014160606D20F480508C
:101F60006065606DC005B3D4606D40F001006065D0
:101F7000AEE72068C068C00750B1606D40F4806073
:101F80006065A06D40F00200A0652046FFF7E6FE08
:101F9000216810200860700512D5680510D5606DA5
:101FA00040F480406065A06D40F00800A0652168A5
:101FB0004FF480600860204600F00AB8FFF74ABC82
:101FC00000F00BB80003045000010450000004505E
:101FD00030BCBDE8C05FFFF7F1BF30BCBDE8C09FBB
:101FE000F8B54FF0000504002E46009502D0606D54
:101FF00010B107E00120F8BD204600F0D9F8A66531
:1020000084F8506020688168C1F3407119B181681B
:102010005C4A1140816020688168C1F3007189B910
:102020008168594A114041F08051816057485849B0
:102030000068B0FBF1F04000801C00E0401E009002
:102040000028FBD120688168C1F3007141B9616D3E
:1020500041F010016165A16D41F00101A16501250B
:1020600001F08BFC616DC90600D430B1606D40F0A9
:102070001000606501252846F8BD606D20F4807071
:1020800040F0020060652068806810F0010F15D1F3
:1020900040488068404900F00100896801F0010172
:1020A00008433E49896801F00101084306D13C49D3
:1020B00060688A6822F47C1202438A60E168606B7F
:1020C000627E0843A16841EA4231084394F8201037
:1020D00040EA0140012904D1A18C324A02EB41417E
:1020E0000843A16A29B101F47071E26A014342EA2E
:1020F00001002168CA682C4B1A400243CA6020685C
:1021000001F03BFC0646206801F033FC304315D15A
:10211000207E94F83010800340EA41002168CA68AC
:1021200044F202039A430243CA6094F8380001283B
:102130000CD02068016921F00101016120690128AA
:102140002068016B21F00F0111D013E0D4E90F01D9
:102150000843D4E911121143084321680A6940F287
:10216000FC739A43104340F001000861E6E7E2691E
:10217000521E11430163606D20F0020040F0010027
:10218000606578E7C0FFFF5FC0FFFF7F240000208D
:10219000400D0300000004500001045000020450F0
:1021A000000304500000FEFF07C0F0FF704700006E
:1021B00010B5A8B00446142122A8FEF718FA882109
:1021C0006846FEF714FA20492068884239D14FF456
:1021D00080400090800301241E901020CDE9024031
:1021E00007200490022005900194042006908005A9
:1021F0000790684600F03CFC08B1FFF708FA134866
:10220000C16C41F40051C164C16C01F400512791CB
:10221000C16C41F00401C164C06C22A900F004004B
:1022200027900B20CDE9224000202490084800F0A0
:1022300021FA00220521122000F0ACFB122000F050
:102240009BFB28B010BD00000000045000100240AD
:10225000000800482DE9F0470446407990460E46B4
:1022600001280BD04FF0010984F80590022020715D
:10227000316808F01005042903D045E00220BDE8CC
:10228000F08700F007FB07465FEA08004FF00308FD
:1022900005D01CE000F0FEFAC01B01280FD8206812
:1022A000406B0004F6D4012000F0D2F92168B06937
:1022B000086416E000F0EEFAC01B012807D9206977
:1022C00040F00800206184F804800320D7E72068EC
:1022D000406B0028EEDB012000F0BAF92168B069FC
:1022E00048642068816C40F2FF32AA409143F26951
:1022F000AA40114381642168C86CFF22AA40904320
:10230000326AAA401043C8643069012808D12268A3
:10231000916B1F20A84081437069A84008439063D7
:102320002268D16B0720A8408143B3683068184306
:10233000F3681843A8400843D063206801684FF44D
:102340008042AA40914301602268106840F6FC7107
:10235000A94088437168A940014311602068016861
:10236000C022AA409143016084F80490002060716B
:1023700085E770B5040003D02079002510B105E091
:10238000012070BD6571204600F008F80220207120
:10239000256101202071002070BD00002DE9F04F63
:1023A00087B0054614216846FEF721F92D492868B3
:1023B000884253D12C48816D41F000518165816D77
:1023C00001F000510591C16C41F00101C164C06C84
:1023D000002600F001000590302000900320CDE998
:1023E000010669464FF0904000F044F9204C1F4828
:1023F0004FF4806A206004F10C014FF080094FF423
:10240000807BC4F818A081E8400A06204FF010082D
:10241000C4E90108C70220262046C4E9076700F086
:10242000B7F808B1FFF7F3F8AC60A562114C0F489C
:1024300004F10C01143020600520C4E901080020DB
:10244000C4F818A081E8010A2046C4E9076700F033
:102450009FF808B1FFF7DBF8EC60A56207B000F069
:102460000BB8000000740040001002403000024031
:10247000E40C00202C0D002030BCBDE8C08F70B5EE
:102480004279012A14D001224271022303710368A8
:102490001D6801F0100602FA06F425431D600029AC
:1024A00001680B6806D0C3F38343012B0AD00DE00B
:1024B000022070BDC3F38303012B07D14B6843F0A7
:1024C000010302E04B6843F002034B6002710021FC
:1024D0004171084670BDF0B4016C0C6801680D686C
:1024E00090F8442002F01C06042202FA06F323426C
:1024F00011D06B070FD50B689B0603D40B6823F034
:1025000004030B6090F8441001F01C018A40016C38
:102510004A60016B1DE0022303FA06F727424FF0E1
:10252000000C4FF0010218D0AF0716D50C68A406B6
:1025300005D40C6824F00A040C6080F8252090F87B
:10254000441001F01C018B40016C4B6080F824C0EA
:10255000C16A00291AD0F0BC08470823B3402342BF
:1025600014D02B0712D50B6823F00E030B6090F8E4
:102570004410036C01F01C0102FA01F15960C263BE
:1025800080F8252080F824C0416BE2E7F0BC70475A
:1025900070B568B12B4C036814212B4AA34209D2B1
:1025A0002A4C1C44B4FBF1F18900C0E910210BE076
:1025B000012070BD234C64421C44B4FBF1F189003E
:1025C0004164204908390164022180F825101C6803
:1025D00047F6F0718C43D0E902152943D0E904563F
:1025E0003543294385692943C5692943056A294338
:1025F000214319608168B1F5804F19D0036C0F2118
:10260000934202D152F8A83F02E00E4AA03213686A
:1026100090F8444004F01C04A1408B43136090F8F0
:102620004430416803F01C0399401368194311605A
:102630000021C163012280F8252080F8241008467B
:1026400070BD00000804024000000240F8FFFDBF1A
:1026500070B5044600F01EF90546601C02D004481F
:102660000078044400F016F9401BA042FAD370BD74
:10267000180000202DE9F04FDFF8EC91002201272F
:10268000A9F1040B85B003254FF00F0C09F1040AE2
:10269000ABF1040EE0E000BF07FA02F416EA04030F
:1026A0007ED00E7906F00306012E01D0022E1FD136
:1026B00086680096560005FA06F80496009E26EAFB
:1026C00008060096D1F80C80049E08FA06F8009ED1
:1026D00048EA0608C0F80880466891F80480A643D6
:1026E000C8F3001808FA02F848EA0608C0F804809F
:1026F000D1F804806FEA0806B6070AD1C66AA64375
:10270000C8F3C00494403443C4620C79E443A40782
:102710000AD0C4684FEA420805FA08F6B4438E6846
:1027200006FA08F62643C6600C7904F00304022C6E
:1027300011D1D40800EB84060296D6F82080540705
:10274000E60E0CFA06F428EA04080C69B440029E6E
:1027500044EA0804346204685600029605FA06F654
:10276000B4430E7906F00308029E08FA06F848EA18
:102770000408C0F800804C6814F4403F6BD03B4C18
:10278000266E46F001062666246E22F0030604F04B
:1027900001040094364C34440294A468960700E087
:1027A00059E04FEA16780CFA08F6B443B0F1904FAE
:1027B00004D0304EB04203D101261BE0002619E0C0
:1027C0002D4EB04201D1022614E02C4EB04201D170
:1027D00003260FE02A4EB04201D104260AE0294E1A
:1027E000B04201D1052605E0274EB04201D10626B0
:1027F00000E0072606FA08F62643029CA660D9F8F0
:1028000000404E46D1F804809C435FEAC82800D5BA
:102810001C433460DAF800405646D1F804809C43EB
:102820005FEA882800D51C433460DBF800405E4630
:10283000D1F804809C435FEA883800D51C4334609B
:10284000DEF800407646D1F804809C435FEAC83841
:1028500000D51C433460521C0B681E46D3407FF4E5
:102860001BAF05B000F012B8080401400010024090
:10287000000001400004004800080048000C004827
:1028800000100048001400480018004830BCBDE8A3
:10289000C08F0000014880687047000018000020C9
:1028A0000248816802781144816070471800002056
:1028B00010B50024032000F08DF80F2000F008F878
:1028C00008B1012401E000F03DF8204610BD0000F1
:1028D00000B5014687B00022192000F05BF81920EE
:1028E00000F04AF81348016E41F400610166006E81
:1028F00005A900F400600690684600F033FB00F084
:1029000063FB0D490D4AB0FBF1F10D48491E026011
:10291000416040F2E7320021C0E90321816000F00C
:1029200046FE10B1012007B000BD054800F072FE60
:10293000F9E700000010024040420F00002C014067
:10294000740D00200B4882B0016E41F00101016658
:10295000016E01F001010091816D41F080518165AE
:10296000806D002200F0805000900F21901E02B078
:1029700000F010B800100240002809DB00F01F0230
:10298000012191404009800000F1E020C0F80011D1
:1029900070470000F0B40E4B1B680C46C3F30223D3
:1029A000C3F10705042D00D90425191D072901D2FB
:1029B000002300E0DB1E012606FA05F1491E214036
:1029C00099409E40761E16403143F0BC01F0C2BCD7
:1029D0000CED00E0064900F0070208684FF6FF031F
:1029E000184040EA0220034A104308607047000084
:1029F0000CED00E00000FA051649B0F5007F08680C
:102A0000C0F3412009D0022805D0086820F4C06036
:102A100040F480600860002070470128FBD00868FF
:102A200020F4C06040F4007008600B483222006857
:102A300050430A4AB0FBF2F0401C00E0401E4A69D5
:102A4000520501D50028F9D148694005E3D5032096
:102A500070470000007000402400002040420F003A
:102A60000248006800F4C060704700000070004039
:102A70002DE9F84F044600270088E54D3E46010544
:102A800004F1200B1DD5606E78B1B0F5800F11D028
:102A9000B0F5000F04D0B0F5400F22D001270FE0B1
:102AA000E86840F48030E8601BE00021201D01F060
:102AB0000DF803E00021584601F09EF8070010D001
:102AC0003E462088C00426D5A06EC0B1B0F1807FFC
:102AD0001AD0B0F1007F0DD0B0F1407F19D001279E
:102AE00018E0D5F88800616E20F440000843C5F86E
:102AF0008800E6E7E86840F48030E86009E00021FB
:102B0000201D00F0E3FF03E00021584601F074F8B7
:102B10000746F7B13E46206880033AD5A86D4FF0CE
:102B20000008C00009D4A86D40F08050A865A86DC9
:102B30004FF0010800F080500090DFF8D8A2DAF8DA
:102B4000001041F48071CAF80010FFF7A3FE81461F
:102B500010E0D5F88800A16E20F040700843C5F859
:102B60008800D8E7FFF796FEA0EB0900022801D9FC
:102B7000032705E0DAF80000C005F3D5002F7CD06C
:102B80004FEA0706B8F1000F03D0A86D20F080507F
:102B9000A8652078C00707D0D5F88800A16B20F081
:102BA00003000843C5F888002078800707D5D5F8CA
:102BB0008800E16B20F00C000843C5F888002078FD
:102BC000400707D5D5F88800216C20F03000084375
:102BD000C5F888002078000707D5D5F88800616C13
:102BE00020F0C0000843C5F888002078C00607D54B
:102BF000D5F88800A16C20F440700843C5F888001F
:102C00002078800607D5D5F88800E16C20F4406074
:102C10000843C5F888002088800507D5D5F88800C6
:102C2000E16D20F440200843C5F888002088400565
:102C300007D5D5F88800216E20F440100843C5F868
:102C400088002078400607D5D5F88800216D20F44B
:102C500040500843C5F888002078000607D5D5F80D
:102C60008800616D20F440400843C5F88800208842
:102C7000C00509D5D5F8880000E01CE0A16D20F45E
:102C800040300843C5F8880020884FF00067800472
:102C90004FF080684FD5D5F88800E16E20F0406095
:102CA0000843C5F88800E06EB8423CD1E86840F4BB
:102CB0008010E8603FE0D5F8900010F4407015D027
:102CC000D4F88410814211D0D5F89000D5F8901036
:102CD00020F4407041F48031C5F89010D5F8901080
:102CE00021F48031C5F89010C5F89000C00710D0CD
:102CF000FFF7D0FD074641F2883906E0FFF7CAFD2D
:102D0000C11B494501D903263CE7D5F8900080074F
:102D1000F4D5D5F89000D4F8841020F4407008431E
:102D2000C5F890002EE7404505D10121201D00F097
:102D3000CDFE00B106462068000317D5D5F88800FF
:102D4000216F20F040600843C5F88800206FB8422A
:102D500004D1E86840F48010E86007E0404505D100
:102D60000121201D00F0B2FE00B10646206840039C
:102D700017D5D5F88800616F20F040600843C5F88A
:102D80008800606FB84204D1E86840F48010E860C1
:102D900007E0404505D10121201D00F097FE00B15C
:102DA0000646208840041AD5D5F88800A16F20F087
:102DB00040500843C5F88800A06FB0F1805F03D091
:102DC000B0F1005F05D00AE00221201D00F07EFE78
:102DD00003E00221584600F00FFF00B106462088AC
:102DE000000407D5D5F88800E16F20F08040084343
:102DF000C5F888002068C00307D555F8880FD4F8B7
:102E0000801020F0004008432860304600F004B8ED
:102E1000001002400070004018BCBDE8E08F0000C8
:102E20002DE9F0470F4605006BD0494E306800F0A1
:102E30000700B84209D2306820F0070038433060FC
:102E4000306800F00700B8425BD12878414C800719
:102E50000AD5A868A16801F0F001884204D9A168E8
:102E600021F0F0010143A1602878C0072CD06868E8
:102E7000032811D0022812D0216898B149050029F1
:102E80003FDAA16821F003010143A160FFF702FDD1
:102E9000804641F2883910E021688901EFE7216816
:102EA0008903ECE78907EAE7FFF7F4FCA0EB0801E8
:102EB000494502D90320BDE8F087A068696800F0A1
:102EC0000C00B0EB810FEFD1287880070AD5A868F5
:102ED000A16801F0F001884204D2A16821F0F0015C
:102EE0000143A160306800F00700B8420BD9306898
:102EF00020F0070038433060306800F00700B84227
:102F000001D00120D7E72878400705D5A068E968F7
:102F100020F4E0600843A0602878000706D5A06888
:102F2000296920F4605040EAC100A06000F05EF81A
:102F3000A168094AC1F30311515C01F01F01C840A7
:102F40000649086006480068BDE8F047FFF7C0BCC6
:102F50000020024000100240C07800082400002039
:102F60001C0000200F2202600C4A936803F0030348
:102F70004360936803F0F0038360936803F4E063B5
:102F8000C36092684FF4E06303EAD202026104482E
:102F9000006800F007000860704700000010024061
:102FA000002002400548064900688968054AC1F3C7
:102FB0000221515C01F01F01C8407047240000202D
:102FC0000010024000790008054806490068896839
:102FD000054AC1F3C221515C01F01F01C84070478E
:102FE00024000020001002400079000870B5254937
:102FF000002318468A68CC6812F00C0204F003061D
:10300000214C4FEA640509D00C2A05D0042A32D09D
:10301000082A00D1284670BD012E10D10B681B076D
:1030200004D4D1F89430C3F3032302E00B68C3F354
:103030000313164E56F82330DAB10C2AEBD1C868C8
:1030400000F00300022818D0032818D01846CA68D8
:10305000CB68C2F30212C3F306234343521CB3FBF3
:10306000F2F2C868C0F34160401C4000B2FBF0F0CF
:1030700070BD184670BD204670BD2046E7E7284663
:10308000E5E70000001002400024F400D0780008BA
:103090002DE9F84304006FD0FD4DA86800F00C0640
:1030A000E86800F003072078C00664D576B10C2EDE
:1030B00001D1012F0AD0A069002828687AD040F0F9
:1030C00001002860FFF7E6FB80465DE02868800786
:1030D00002D5A0690028DED0216A2868000703D540
:1030E000286800F0F00004E0D5F89400F02202EA2D
:1030F0001010814216D9084600F002FE00283BD18C
:10310000286840F0080028602868216A20F0F00054
:10311000084328606868E16920F47F4040EA0120A4
:10312000686016E0286840F0080028602868216A76
:1031300020F0F000084328606868E16920F47F40CF
:1031400040EA0120686026B9206A00F0D9FD002815
:10315000D5D1FFF74BFFA968CE4AC1F30311515CEB
:1031600001F01F01C840CC490860CC480068FFF757
:10317000AFFB00287ED12EE0CAE000BFFFF78AFB3C
:10318000A0EB0800022876D828688007F6D52868C2
:1031900040F0080028602868216A20F0F000084309
:1031A00028606868E16920F47F4040EA0120686097
:1031B00011E0FFE720F001002860FFF76BFB80467D
:1031C00006E000BFFFF766FBA0EB08000228DAD894
:1031D00028688007F6D42078C00740D0082E18D081
:1031E0000C2E01D1032F14D06068B0F5803F17D0AA
:1031F000B0F5A02F286817D020F480302860286808
:1032000020F4802028606068E0B1FFF743FB80462F
:1032100014E02868800322D56068002878D01EE07A
:10322000286840F48030EDE740F480202860F7E71C
:10323000FFF730FBA0EB08006428A4D828688003BF
:10324000F6D50CE0FFF726FB804605E0FFF722FBF2
:10325000A0EB0800642896D828688003F6D420786C
:1032600080073BD5042E11D00C2E01D1022F0DD09A
:10327000E06801E086E1D6E0002828681ED040F42E
:1032800080702860FFF706FB07460CE028684005C1
:103290000CD5E0680028C1D008E000BFFFF7FAFABB
:1032A000C01B022893D828684005F7D56868217CA0
:1032B00020F0F85040EA016068600FE020F4807070
:1032C0002860FFF7E7FA074605E000BFFFF7E2FADC
:1032D000C01B0228B1D828684005F7D42078000721
:1032E00029D560690028D5F8940012D040F001007B
:1032F000C5F89400FFF7CEFA074604E0FFF7CAFAD4
:10330000C01B022899D8D5F894008007F6D512E0A2
:1033100000E120F00100C5F89400FFF7BBFA074672
:1033200005E000BFFFF7B6FAC01B02287BD8D5F82E
:1033300094008007F6D42078400766D5A86D002752
:10334000C00008D4A86D40F08050A865A86D012782
:1033500000F08050009052480168C90512D40168FD
:10336000814641F480710160FFF794FA804605E0E0
:10337000FFF790FAA0EB0800022854D8D9F8000013
:10338000C005F5D5A068012816D00528D5F890000D
:1033900017D020F00100C5F89000D5F8900020F07B
:1033A000040000BFC5F89000A06841F28839C0B1A0
:1033B000FFF770FA80460FE0D5F8900040F001006A
:1033C000F0E740F00400C5F89000F5E7FFF762FA77
:1033D000A0EB0801494526D8D5F890008007F5D51F
:1033E0000EE0FFF757FA804606E000BFFFF752FAFB
:1033F000A0EB0801494516D8D5F890008007F5D410
:103400001FB1A86D20F08050A865A06AF0B3022813
:103410000AD00C2E7ED0286820F080702860FFF73C
:1034200039FA0446B0E0ACE0E868E26A00F0030173
:10343000914229D1216B00F07002090110399142AB
:1034400022D1626B00F4FE41B1EB022F1CD1A26BC2
:1034500000F40031072A01D0012200E0002291424D
:1034600012D1A18F00F4C00249084905A1F500114D
:10347000914209D194F8401000F0C0604908490613
:10348000A1F1007181425ED00C2E0BE072E00000D1
:1034900000100240C0780008240000201C0000201A
:1034A0000070004079D02868400176D42868C000B8
:1034B00073D4286820F080702860FFF7EBF9064687
:1034C00005E000BFFFF7E6F9801B022859D82868FD
:1034D0008001F7D4D4E90B016FF00F0202EB011168
:1034E0000843A18F5204490802EB4151626B41EA43
:1034F0000221084394F840104FF07E42490802EB45
:1035000041610843A16B090940EA4140E968244A46
:10351000114000E041E00843E860286840F0807016
:103520002860E86840F08070E860FFF7B3F904466F
:1035300005E000BFFFF7AEF9001B022821D828687C
:103540008001F7D527E02868800124D4286840F05E
:1035500080702860E86840F08070E860FFF79AF9B2
:10356000044604E0FFF796F9001B022809D82868F2
:103570008001F7D50FE000BFFFF78CF9001B022890
:1035800002D90320BDE8F88328688001F4D4E868F4
:1035900004490840E8600020F4E70120F2E7000059
:1035A0008C809DF9FCFFEEFE70477047704710B5A8
:1035B000040003D094F83D0010B107E0012010BDD5
:1035C000002084F83C00204600F022F8022084F815
:1035D0003D00211D206800F02BFC012084F84800EC
:1035E00084F83E0084F83F0084F8400084F84100ED
:1035F00084F8420084F8430084F8440084F84500CD
:1036000084F8460084F8470084F83D00002010BD8F
:103610007047000090F83D10012901D0012070474B
:10362000022180F83D100168CA6842F00102CA60B8
:1036300000681149884211D0B0F1804F0ED00F4977
:1036400088420BD00E49884208D00E49884205D0E6
:103650000D49884202D00D49884207D181680C4A41
:103660001140062906D0B1F5803F03D0016841F032
:103670000101016000207047002C0140000400405F
:1036800000080040000C00400034014000400140B0
:1036900007000100704770B50446006801694FF0EB
:1036A0000005C943890715D4C168C943890711D4E6
:1036B000E91E01610120207720688069800720468B
:1036C00002D0FFF7E7FF04E000F0A7F8204600F083
:1036D000A5F8257720680169C943490717D4C1684F
:1036E000C943490713D46FF0040101610220207718
:1036F0002068806910F4407F204602D0FFF7CAFF9F
:1037000004E000F08AF8204600F088F82577206869
:103710000169C943090716D4C168C943090712D40E
:103720006FF008010161042020772068C0698007DC
:10373000204602D0FFF7AEFF04E000F06EF820460E
:1037400000F06CF8257720680169C943C90617D4D1
:10375000C168C943C90613D46FF010010161082084
:1037600020772068C06910F4407F204602D0FFF720
:1037700091FF04E000F051F8204600F04FF8257763
:1037800020680169C943C90708D1C168C943C9078D
:1037900004D1891E0161204600F042F820680169C9
:1037A000C943090609D4C168C943090605D46FF0A5
:1037B000800101612046FFF7F8FE20680169C943D6
:1037C000C90509D4C168C943090605D46FF48071DD
:1037D00001612046FFF7E8FE20680169C9434906F8
:1037E00009D4C168C943490605D46FF0400101619D
:1037F000204600F047F820680169C94389060BD4C8
:10380000C168C943890607D46FF0200101612046D1
:10381000BDE87040FFF7CABE70BD7047704700003A
:1038200000681349884222D11349124A134B088871
:1038300002EB800292ED000ABCEEC00A10EE102AE4
:103840001A600F4A0D4B02EB80020C3392ED000A16
:10385000BCEEC00A10EE102A1A604FF4B472401C7D
:10386000B0FBF2F302FB13000880FFF719B87047B2
:10387000002C014044070020000000200874004094
:10388000A4010020704710B5040002D0A06F10B151
:1038900007E0012010BD002084F87400204600F0ED
:1038A00025F82420A0672068016821F0010101604B
:1038B000204600F0AFFB0128ECD0606A10B1204632
:1038C00000F016FB2068416821F4904141602068B7
:1038D000816821F02A0181602068016841F00101BE
:1038E00001602046BDE8104000F066BB30B5A9B0CD
:1038F0000446142122A8FCF77AFE88216846FCF7CA
:1039000076FE16492068884226D1002502240F95AC
:1039100068460094FFF7ACF808B1FDF778FE104850
:10392000816D41F400318165816D01F40031279191
:10393000C16C41F00101C164C06C22A900F001001A
:1039400027900C2081E83100032025900720269045
:103950004FF09040FEF78EFE29B030BD004400408D
:1039600000100240FEE700EB8100006E00F0F8401E
:1039700070478068C0F3C00070478068C0F3800063
:1039800070478068C0F380007047C06810F4406FD3
:1039900001D00020704701207047042303EAD1536F
:1039A00010B518444369C1F3045107248C40A34364
:1039B0008A401343436110BD00EB8100016E21F08A
:1039C000004111430166704730B589B00024069468
:1039D0000794182168460894FCF709FE1C481B4907
:1039E0000425C0E900148460C460C0E9044504767D
:1039F00044760121C16180F820408462C46280F86D
:103A00003040446380F83840FEF7EAFA08B172B6F5
:103A1000FEE706A90E480694FDF720FF08B172B62E
:103A2000FEE70C48009006200190022002907F20C3
:103A30000594CDE9030569460548FDF78DFF00288B
:103A400001D072B6FEE709B030BD0000000004509E
:103A5000A8000020020030040C4810B50A4901609B
:103A60004FF4E1314160002181600C22C160C0E966
:103A700004128161C16101624162FFF704FF002805
:103A800001D072B6FEE710BD0044004020010020C6
:103A900008B501200A4E8DF800004FF4B4744FF6BB
:103AA000FF752146074800F059FE2B460022694663
:103AB000306900F091FF012000F0F4FEF1E7000012
:103AC0000000002044070020FEE7FEE72DE9F0415A
:103AD000444C05468846E0680026810728680DD0DA
:103AE000E16801F00301814216D1A8B1E06869687C
:103AF000C0F30210401C88420ED120E0012804D0FF
:103B0000022805D0032807D108E02168890701E0D1
:103B100021684905002907DB01265FE02168890348
:103B200002D421684903F5E7E1686A686FF00F0382
:103B300021F0730103EB021211430143E16020689D
:103B400020F080602060FEF7A5FE074605E000BF7C
:103B5000FEF7A0FEC01B022837D820680001F7D46A
:103B6000B8F1000F18D0B8F1010F1ED0287D4FF02A
:103B70007E41400801EB4060A96840EA01202169CC
:103B8000194A114008432061206840F0806020609D
:103B9000FEF780FE07461AE0A868E96800020909F6
:103BA00040EA41402169114AEBE7288A1049400860
:103BB00001EB4050A96840EA012021690D4AE0E785
:103BC000FEF768FEC01B022801D9032606E0206824
:103BD0000001F5D52069A969084320613046BDE898
:103BE000F081000000100240FF80FFF9FF80FDFF20
:103BF0000000E0FFFF809FFF2DE9F0413D4C0646AD
:103C00008846E0680025810730680DD0E16801F042
:103C10000301814216D1A8B1E0687168C0F30210B7
:103C2000401C88420ED120E0012804D0022805D093
:103C3000032807D108E02168890701E021684905C8
:103C4000002907DB012551E02168890302D421689E
:103C50004903F5E7E16872686FF00F0321F0730123
:103C600003EB021211430143E160206820F0805011
:103C70002060FEF70FFE074605E000BFFEF70AFED4
:103C8000C01B022829D820688000F7D4B8F1000FA3
:103C900015D0307C4FF07E41400801EB4060B168A8
:103CA00040EA01206169144A1140084360612068BC
:103CB00040F080502060FEF7EDFD07460FE0B06851
:103CC000F1680002090940EA414061690B4AEBE7EB
:103CD000FEF7E0FDC01B022801D9032506E020689D
:103CE0008000F5D560697169084360612846BDE8C8
:103CF000F081000000100240FF80FFF9FF80FDFF0F
:103D0000F8B51C4D06460024A86DC00002D5FEF78C
:103D1000A7FE0DE0A86D40F08050A865A86D00F0EA
:103D200080500090FEF79CFEA96D21F08051A9659E
:103D3000B0F5007F04D0802E07D94FF003040AE0CD
:103D4000802E08D9A02E01D804E001D1022402E07F
:103D5000702E00D101240848016821F00701214399
:103D60000160006800F00700A04201D00120F8BD0A
:103D70000020F8BD0010024000200240012000F0A9
:103D800091FDFBE710B54FF0E020006902F096F9D5
:103D9000012803D0BDE8104001F03ABE10BD10B5B7
:103DA00096B044216846FCF722FC142111A8FCF7C8
:103DB0001EFC4FF40070FEF71FFE08B172B6FEE75E
:103DC000102000900120002460210690CDE90741D9
:103DD0000221CDE90A100C9020200D900720CDE99A
:103DE0000E0168461091FFF753F908B172B6FEE76D
:103DF0000F2011900320CDE912040146149411A85C
:103E00001594FFF70DF8002801D072B6FEE716B042
:103E100010BD00000248016841F470010160704764
:103E200088ED00E00148FFF736BC0000740D00206B
:103E30002DE9F0470268264B264D274E274F284C88
:103E40004FF0804A984209D0504507D0A84205D08B
:103E5000B04203D0B84201D0A04204D122F0700C8D
:103E60004A6842EA0C02DFF87CC0DFF87C80DFF8A9
:103E70007C9098420FD050450DD0A8420BD0B04254
:103E800009D0B84207D0A04205D0604503D04045D4
:103E900001D0484503D122F44075CA682A434D69D0
:103EA00022F080022A4302608A68C2620A68826243
:103EB000984207D0A04205D0604503D0404501D0CC
:103EC000484501D10969016301214161BDE8F087DD
:103ED000002C01400004004000080040000C00409D
:103EE00000340140004001400044014000480140CE
:103EF00090F82410C90706D001684A68836A22F442
:103F000000321A434A6090F82410890706D50168E8
:103F10004A68C36A22F480321A434A6090F8241037
:103F2000490706D501684A68036B22F480221A43C8
:103F30004A6090F82410090706D501684A68436B67
:103F400022F400421A434A6090F82410C90606D5AC
:103F500001688A68836B22F480521A438A6090F861
:103F60002410890606D501688A68C36B22F40052C2
:103F70001A438A6090F82410490611D501684A68EE
:103F8000036C22F480121A434A60016CB1F5801F61
:103F900006D101684A68436C22F4C0021A434A60A1
:103FA00090F82410090606D501684A68806C22F44E
:103FB000002202434A607047F8B500260446C0F864
:103FC0008060FEF767FC0546206800686FF07E475A
:103FD000000708D52B4600224FF400112046009719
:103FE00000F03CF960B92068006840070AD52B460C
:103FF00000224FF480012046009700F02FF908B10D
:104000000320F8BD2020A067E067266684F874606E
:104010000020F8BD2DE9F04104460168806822695E
:10402000E3691043626900251A431043814F0A680F
:10403000814B1A4002430A6020684168E26821F41B
:104040004051114341602168A069B94201D0226A00
:1040500010438A6822F4306202438A6077492268FA
:1040600077488A420DD1D0F8880010F0030006D0BE
:10407000012866D0022854D0032851D163E00120E2
:104080004FE070498A420BD1D0F8880010F00C0044
:1040900047D0042845D0082851D00C2840D152E000
:1040A00069498A420BD1D0F8880010F0300038D02E
:1040B000102846D0202842D0302831D143E063492F
:1040C0008A420BD1D0F8880010F0C00029D04028D7
:1040D00037D0802833D0C02822D134E05C498A42CE
:1040E0000ED1D0F8880010F440701AD0B0F5807F5F
:1040F00027D0B0F5007F22D0B0F5407F10D122E06C
:10410000BA420DD1D0F8880010F4406009D0B0F563
:10411000806F16D0B0F5006F11D0B0F5406F12D09F
:1041200010204C4900264FF40043BA422ED160B112
:1041300002280DD004280DD008286FD10EE00220EF
:10414000EFE70420EDE70820EBE7FEF72BFF03E0A5
:104150000B4603E0FEF74AFF030060D0626802EB03
:10416000420098425AD8B3EB023F57D8190E1B02AF
:104170005008181871410023FCF70EF9364AA0F5D3
:10418000407191424AD82168C86048E0E2694FF620
:10419000EF779A4227D1092840D2DFE800F00508DE
:1041A0000D3F213F3F3F0E00FEF7FCFE01E0FEF712
:1041B0000BFF030001D132E00B466068590001EBB0
:1041C0005001B1FBF0F0A0F11001B94226D84FF632
:1041D000F0710140C0F3420001432068C1601EE05D
:1041E000FEF704FFE5E7092818D2DFE800F005082C
:1041F0000D171D1717170E00FEF7D4FE01E0FEF78E
:10420000E3FE030001D10AE00B46606803EB5001B6
:10421000B1FBF0F0A0F11001B94208D901256666A2
:104220002846A666BDE8F081FEF7E0FEE9E780B229
:10423000A9E7000000800040F369FFEF003801406B
:10424000001002400044004000480040004C004084
:10425000005000400024F400FFFC0F002DE9F0475F
:104260009A4617460E4604464FF000094FF02008C4
:10427000089D4AE0681C48D0FEF70CFBA0EB0A0042
:10428000A8422AD84DB32068016849073DD5C069C6
:10429000C043000539D421684FF4006008622068EB
:1042A00050E8001F21F4D07140E80012002AF6D136
:1042B0002068083050E8001F21F0010140E800129A
:1042C000002AF5D1C4F87880C4F87C80C4F88080D6
:1042D00084F874900320BDE8F087216851E8000F4E
:1042E00020F4D07041E80002002AF6D1206808309E
:1042F00050E8001F21F0010140E80012002AF5D12A
:10430000C4F87880C4F87C80E2E72068C06936EAA7
:10431000000004D00020B842ACD00020DBE7012030
:10432000F9E7FEE703B401984100009850EAC12084
:1043300018BF04204A0D18BF40F0010040F2FF7280
:10434000B2EB515F08BF40F00200012808BF052012
:1043500002B070470907090E002804DB00F1E020D5
:1043600080F80014704700F00F0000F1E02080F8A2
:10437000141D704710B52DED040B86B09DED060B96
:1043800010EE100A10EE901A8DED000B002818BFE9
:104390000120084320F00040C0F17F6000F1E040C0
:1043A000C00F21D19DED080B10EE101A10EE900AEF
:1043B0008DED000B002918BF0121084320F00040BB
:1043C000C0F17F6000F1E040C00F0DD1294907988E
:1043D000B1EB400F04BF0698002842D00998400076
:1043E00004BF089800283CD09DED080B53EC102B1F
:1043F0009DED060B51EC100B02F0B6FBCDE902016E
:104400009DED020B40F2FF7110EE900A8DED000B56
:1044100031EA105021D00798039900F0004001F0D4
:104420000041884219D09DED080B8DED040B9DEDE8
:10443000020B8DED000B10EE900A059961F31E0042
:1044400005909DED041B9DED020B51EC110B53ECFF
:10445000102B02F037FCCDE902019DED020B0AB0F2
:1044600010BD0120FCF7F2F80AB0BDE8104000F0E2
:10447000BBB800000000E0FF10EE100A10B50023EA
:10448000A0F50001B1F1FE4F67D200BF00F5002199
:104490006FF07E0202EBE15CC1F302524FF07E51FD
:1044A00001EB025100EE901AA0EBCC5003EB0C0193
:1044B00000EE100A51EA020036D030EE601A70EEBB
:1044C000200A9FED3D2A3E4881EE200A9FED3B1ACF
:1044D00060EE000A00EE821A60EE201A61EE810A98
:1044E000784401EE101A00EB82009FED362AB8EEF8
:1044F000C11AD0ED001A344841EE021A784401EE98
:10450000101A00EB8200B8EEC11A90ED002ADFED20
:104510002F2A01EE222AB0EE001A72EE200A40EE97
:10452000010A31EEA00A10BDF7EE000A9FED291A2C
:1045300030EE600ADFED260A00EE201ADFED260AD3
:1045400060EE001A40EE010A9FED241A00EE201AD8
:1045500061EE810A30EE200A10BD4FF07F41B1EBD1
:10456000400F03D2BDE8104000F058B8B0F1FF4F43
:1045700008BF10BDB5EEC00AF1EE10FA06D2012058
:10458000FCF764F8BDE8104000F04CB8B5EEC00A86
:10459000F1EE10FA07D10220FCF758F800F034F8D9
:1045A000B1EE400A10BDDFED0E0A6FF0160320EEEB
:1045B000200A10EE100A69E766F1CC3EAAAA2A3F4B
:1045C000243400000070313F28340000F4FD053829
:1045D00021ED423E0A1180BEC1ABAA3EFFFFFFBEE5
:1045E0000000004B000000009FED050B10B553ECE0
:1045F000102B51EC100B02F013F841EC100B10BD16
:104600000000000000000000DFED030AB7EE001A12
:1046100081EE200A704700000000000030EE000A22
:1046200070470000DFED020A80EEA00A704700002C
:10463000000000008AB0FEF73BF9FFF7B0FB3F4CEB
:10464000E06C40F00400E064E06C00F004000090D6
:10465000E06C40F00100E064E06C00F001000090CC
:10466000FFF7B2F9FFF7F8F9A06C40F00100A06481
:10467000A06C002200F00100009005210D20FEF743
:1046800089F90D20FEF778F9002205210E20FEF7AA
:1046900081F90E20FEF770F924216846FBF7A7FF89
:1046A0002849274808600846FDF763FE08B172B63E
:1046B000FEE70020009001900290039002460490D3
:1046C00069462048FDF7C6FD08B172B6FEE7102224
:1046D00069461C48FDF7BEFD08B172B6FEE7002131
:1046E0001848FDF7CCFE10211648FDF7C8FE00F073
:1046F000E7F8154800F0A4F9144C134A042160614E
:10470000183A052000F03CF90F4A2061843A002154
:104710000F4800F0C9F90C4A6060603A00210D486A
:1047200000F0C2F9084AA0603C3A00210A4800F0B3
:10473000BBF9E06000F0D6F8FEE700000010024090
:10474000007400400C010020B07800080000002038
:104750007D3D0008913A00080D18000870B50D461F
:104760002DED028B0646002438E000BF00F04CF827
:104770009FED1D1B51EC100B53EC112B02F0FCF8BC
:1047800000EE104ADFED1A0A9FED1A1AB8EE400A41
:1047900041EC180B60EE200A80EE810AFCF776FFF0
:1047A000F0EE000A30EE200A10EE100A02F080FB54
:1047B00053EC182B01F080FE9FED0F1B53EC112BD7
:1047C00002F0DAF89FED0E1B53EC112B01F028FFDD
:1047D00001F040FE46F82400641CA4B2AC42C5DBE4
:1047E000BDEC028B70BD00000000000000002E40F8
:1047F000DB0F4940000034430000000000FEAF40E2
:10480000000000000000144010B52DED048BFBF7F4
:1048100089FD02F099F89FED1F9B53EC192B01F0D5
:10482000FFFE41EC180BFBF77DFD02F08DF853EC19
:10483000192B01F0F5FE41EC190B51EC180B01F0AE
:1048400009FE00EE100AFFF717FEF8EE000A20EE50
:10485000200AFCF755FFB0EE408A9FED100B51EC9B
:10486000190B53EC102B02F087F801F0F3FD00EE6A
:10487000100AFCF7CFFE68EE000AB3EE0E1A80EEC7
:10488000810A10EE100A02F013FBBDEC048B41EC20
:10489000100B10BD0000C0FFFFFFDF4100000060F3
:1048A000FB21194010B5EFF3058111B16FF005043C
:1048B00003E0002408B100F04BFF204610BD0000CB
:1048C000EFF3058010B16FF00500704704480168F0
:1048D00011B14FF0FF307047012101600020704797
:1048E0007800002010B5EFF3058010B16FF00500DF
:1048F00010BD08480168012902D04FF0FF3010BDFB
:10490000054A002182F8141D0221016000F088FF91
:10491000002010BD780000200BE000E0F8B51D4637
:104920006FF003026FF002064FF00004EFF305830F
:10493000A3B1F0B1E9B1E5B9002200926A4601F0F5
:10494000D9FA012817D10098B0B10C494FF0805026
:104950000860BFF34F8FBFF36F8F0DE048B141B1D7
:104960002A4601F02BFA012806D025B16FF0010488
:1049700002E0144600E034462046F8BD04ED00E0B5
:10498000F8B514464FF00005EFF3058212BB08B3EB
:1049900001B3A4B1D4E9023263B1502A1AD3226917
:1049A000C2B1676900FB01F6B74213D3009501F06D
:1049B0007EF807E072B9226962B9626952B90022D1
:1049C00001F054F8050005D00CB1216800E0002189
:1049D00000F088FE2846F8BDF8B51D466FF00302CA
:1049E0006FF002064FF00004EFF30583ABB100B3A4
:1049F000F9B1F5B90022134600926A4601F07EF93A
:104A0000012818D10098B8B10C494FF080500860C7
:104A1000BFF34F8FBFF36F8F0EE050B149B100234A
:104A20002A4601F0BBF8012806D025B16FF0010439
:104A300002E0144600E034462046F8BD04ED00E0F4
:104A400070B505464FF00004EFF3058050BB0DB183
:104A5000686800E00020C10701D0012600E00026C0
:104A600000071FD46DB1D5E9021021B1502819D328
:104A70001EB1042002E020B114E0012000F0E9FFA3
:104A800005E00EB1042000E0012000F0D7FF040093
:104A900008D00DB1296800E0002100F023FE0EB11E
:104AA00044F00104204670BD2DE9FF414FEA0103A7
:104AB0004FF00005EFF30581039549BB40B3802714
:104AC000182100244AB3166806B1344696691EB10F
:104AD0003146761E382E02D21679F60703D0002012
:104AE00004B0BDE8F081566906B1B708D2F808C035
:104AF000BCF1000F0DD0D5685C2D18D312693AB106
:104B000036B18DE806103A46214601F0ABFA039023
:104B10000DE0D6685EB912694AB903AACDE9001260
:104B2000BAB2214601F06EFA012800D0039503982D
:104B3000D6E70000064B10B505490C3304E00C68BD
:104B40006406FCD51A80401C0278002AF7D110BDFB
:104B50001C4400402DE9F041134C0F460546E66821
:104B60002068001D00F0C0FC681C07D137B1216827
:104B7000BDE8F0410D48091D00F006BD2068354430
:104B8000B5424560216805D2A06BBDE8F041091D22
:104B900000F0E2BC606B091D00F0DEFCA06A8542FB
:104BA00000D2A562BDE8F08128000020B0120020EC
:104BB0002DE9F041054600F0F3FC2D4CA068401CA7
:104BC000A06020682B4F10B1606930B32BE02560E6
:104BD000A068012827D1002606EB860007EB80009D
:104BE00000F0ACFC761C382EF6D3234800F0A6FC6F
:104BF0002148143000F0A2FC1F48283000F09EFC31
:104C00001D483C3000F09AFC1B48503000F096FCE8
:104C1000194860631430A06305E02068E96AC06A3F
:104C2000884200D82560606A401C60626864E86A57
:104C30002169884200D9206100EB800007EB8000E9
:104C4000291D00F0A1FC00F0CBFC606900280CD00D
:104C50002068E96AC06A884207D208494FF080504C
:104C60000860BFF34F8FBFF36F8FBDE8F081000086
:104C700028000020000E00206012002004ED00E05B
:104C800038B500F08DFC104C2068C8B90F4800F012
:104C900055FC0E48143000F051FC0C48E060143014
:104CA00020610A4B0020F03B009003F150021021DC
:104CB0000A2000F0FCFE206010B105A100F012FDFA
:104CC000BDE8384000F08CBC64000020B413002024
:104CD000546D72510000000030B4026C0B46002A83
:104CE0000BD0C1681144C1608468A14201D301683E
:104CF000C16030BC1846FBF72DBC30BC70472DE9B5
:104D0000F041856B174604460026026C82B1C7B19C
:104D1000E068FBF71FFCE168206C091AE16022687B
:104D2000914202D2A168081AE060022F16D017E063
:104D30002068A8B9A06801F039FA06460020A060F2
:104D40000EE06068FBF706FC216C60680844606058
:104D5000A168884204D32068606001E005B16D1E3F
:104D60006D1CA5633046BDE8F08110B5044690F88F
:104D7000590058B101280CD002280FD0502080F3E0
:104D80001188BFF34F8FBFF36F8FFEE7206B00F0EA
:104D90003BFC2046BDE8104000F036BC10BD0000D2
:104DA0000F4840F6B831420705D0C01D0C4A20F02C
:104DB0000700821A891A0B4A00230144C2E9000342
:104DC0000839183A21F0070111604B600B600B1A8B
:104DD000C0E9001393604FF000405360506170478A
:104DE000941A002094000020144E154CA6F29C4703
:104DF0004FF08058DFF84C9012E000BF00F0D0FB7D
:104E0000F068C568281D00F06FFBA068401EA06018
:104E10006068401E606000F0E3FB2846FFF7A5FFD6
:104E200060680028EAD138680128F9D9C9F80080FB
:104E3000BFF34F8FBFF36F8FF2E700009C1200208B
:104E40002800002004ED00E0002807D00021816048
:104E500001600B460A46C16000F0A0BE704700002A
:104E600070B51D46049C51B1C4F80020C4E90F017F
:104E70000121204600F04EFE84F84C5070BD2460A5
:104E8000F4E700002DE9F05F8846DDE90B94154654
:104E9000834691009A460A9EA522206BFBF79FFB52
:104EA0006FF00301206B01EB8501084420F0070738
:104EB000780707D0502080F31188BFF34F8FBFF3DE
:104EC0006F8FFEE70025B8F1000F0FD05FF00000F4
:104ED000221818F8001082F8341018F8001011B1D8
:104EE000401C1028F4D384F8435001E084F8345077
:104EF000382E00D33726E662C4E91365201D00F082
:104F000028FB04F1180000F024FB2461C6F13800EE
:104F10006462A061656584F8585052465946384627
:104F200000F05EFA2060B9F1000F01D0C9F800402E
:104F300000F000B830BCBDE8C09F000030B511499A
:104F400000E011460A688242FBD34B685C18844239
:104F500003D1406818444860084643681C189442CE
:104F600009D1084C183C2468A24209D052681A445E
:104F700042600A6812680260814200D0086030BD59
:104F80000460F9E79400002070B5002441600B4DE7
:104F90000061914206D8D11A8269914206D2011D60
:104FA000286907E09A4203D2994201D3012403E021
:104FB000011DE86800F0D0FA204670BD64000020B2
:104FC00010B5044600F0ECFAA06B28B15FF00004C5
:104FD00000F006FB204610BD0124F9E730B589B08A
:104FE0003C4D6EE00498002806DADDE90601059ADA
:104FF00090470498002864DB069C606910B1201D6E
:1050000000F072FA03A800F0D7F8024604980A28C4
:1050100057D2DFE800F00505052D334A05052D338D
:1050200094F8280040F0010084F828000599A06950
:10503000059B01442046FFF7A7FF68B3216A20467D
:10504000884794F8280040073BD500200090059839
:10505000A169002342181946204601F0B1F9D8B9D8
:10506000502080F31188BFF34F8FBFF36F8FFEE79F
:1050700014F8280F20F00100207022E094F8280096
:1050800040F0010084F828000598A06128B181183B
:1050900013462046FFF778FF13E0502080F3118875
:1050A000BFF34F8FBFF36F8FFEE794F8280081079F
:1050B00003D4204600F0A8FA03E020F0010084F8B1
:1050C0002800002204A9286800F078FE002889D171
:1050D00009B030BD640000202DE9FC410F460546B3
:1050E00000F0E2FB01A800F067F80446019818B14F
:1050F00001F0D4F8BDE8FC81254EAFB130690068FD
:10510000D0B30027291B3A46306800F0FFFA01F0BF
:10511000C5F80028EED11F494FF080500860BFF35A
:105120004F8FBFF36F8FE5E7A542EBD801F0B6F8DC
:10513000F0682746C068C468201D00F0D5F994F8CF
:105140002800410719D5A0692B4641193A46204647
:10515000FFF71AFFA8B100200346014600902A4637
:10516000204601F02DF960B9502080F31188BFF37B
:105170004F8FBFF36F8FFEE707E020F0010084F848
:105180002800216A20468847B4E70127BAE70000D3
:105190006400002004ED00E00648416B096829B175
:1051A000416BC968C9684968816270474FF0FF3137
:1051B000FAE700002800002070B5054600F08CFFDB
:1051C000064E0446B068844203D200F009F801207C
:1051D00000E0002028602046B46070BD640000201C
:1051E000F8B5194D20E0C068C4680668201D00F0BD
:1051F0007BF9216A2046884794F82800400713D598
:10520000A0693044B04206D924616060211DE8687D
:1052100000F0A2F908E00020034601460090324663
:10522000204601F0CDF838B1E86801680029DAD1EC
:105230002969C5E90310F8BD502080F31188BFF338
:105240004F8FBFF36F8FFEE764000020084840686F
:10525000401C4FF0500080F3118804D0BFF34F8FF3
:10526000BFF36F8FFEE7BFF34F8FBFF36F8FFEE784
:105270009C000020074CE068016841B1C068002133
:10528000D0F80000FFF728FFFFF7A8FEF3E70121A1
:105290000020F7E7640000202DE9F041044600F00B
:1052A0007FF994F9455004F1240609E0606A48B199
:1052B000304600F0BBFF08B100F078FA6D1E6DB209
:1052C000002DF3DC4FF0FF3684F8456000F088F9DC
:1052D00000F066F994F9445004F1100709E02069E0
:1052E00048B1384600F0A2FF08B100F05FFA6D1E29
:1052F0006DB2002DF3DC84F84460BDE8F04100F0AD
:105300006FB900002DE9F0410546002700F0CCFA06
:10531000324E306808B9FFF743FD706905424ED13F
:10532000C5B3083568070ED005F00700C0F10800C6
:105330000544680707D0502080F31188BFF34F8FD2
:10534000BFF36F8FFEE72DB37068854237D82348CF
:10535000183001460C6801E020460C466168A942FD
:1053600002D221680029F7D131688C4227D0076822
:105370002168016060680837411B10290FD9601946
:10538000420708D0502080F31188BFF34F8FBFF33E
:105390006F8FFEE713E041606560FFF7CFFD616846
:1053A0007068401A7060B268904200D2B060706954
:1053B00001430020C4E90001F068401CF06000F0E7
:1053C0006DFF780707D0502080F31188BFF34F8F0F
:1053D000BFF36F8FFEE73846BDE8F0817C00002008
:1053E00010B5031F4FF080741C601B1F21F00101DA
:1053F0001960191F044B0B6014390A60091F6FF004
:10540000020244380A6010BD4D52000810B59FEDED
:10541000200A00232DED028B88B0B0EE408A0DE00B
:1054200000EB8304D4ED000A01EB83045B1C30EE37
:10543000800AD4ED000A9BB230EE888A9342EFDBFB
:1054400010EE100A01F034FD41EC100B11A153ECE9
:10545000102B6846FBF718F818EE100A01F028FD2B
:1054600041EC100B0BA153EC102B04A8FBF70CF82C
:1054700009A0FFF75FFB6846FFF75CFB0EA0FFF794
:1054800059FB04A8FFF756FB08B0BDEC028B10BD1A
:1054900000000000256600000AD0A1D0B8D0B3D02B
:1054A000BDD0B0D0BB20D18120D188D183D0BCD099
:1054B000BED0BC3A2000000020D09ED182D184D042
:1054C000B8D0BBD18CD182D180D0BED0B2D0B0D038
:1054D000BDD0BDD18BD0B920D181D0B8D0B3D0BD93
:1054E000D0B0D0BB3A200000D0E9013201699A6007
:1054F000D0E901235A604A68824201D182684A6039
:10550000002202610868401E0860086870470000B9
:10551000034B036003F15C0008608020106070475B
:10552000DC130020044B036003F15C0008604FF4BF
:1055300080701060704700003816002000F10801EC
:105540004FF0FF32C0E90112C1600161002101602A
:10555000704700210161704730B50B685A1C02D0BA
:1055600000F1080202E0026904E02246546825685E
:105570009D42FAD953684B6099608A605160086116
:105580000168491C016030BD42684A6093688B60C5
:1055900093685960916008610168491C0160704717
:1055A000502080F31188BFF34F8FBFF36F8F0A49EC
:1055B0004868401C486001280CD10848006810F079
:1055C000FF0F07D0502080F31188BFF34F8FBFF338
:1055D0006F8FFEE7704700009C00002004ED00E0A4
:1055E0000849486828B1401E486001D180F31188FD
:1055F0007047502080F31188BFF34F8FBFF36F8F38
:10560000FEE700009C00002070B500282AD0164D4F
:10561000A0F1080460686969084207D1502080F34E
:105620001188BFF34F8FBFF36F8FFEE722683AB147
:10563000502080F31188BFF34F8FBFF36F8FFEE7C9
:105640008843606000F030F9606869680844686009
:105650002046FFF773FC2869401C2861BDE87040B4
:1056600000F01CBE70BD00007C0000204FF0E02068
:1056700000210161816105494FF47A720968B1FB2B
:10568000F2F1491E416107210161704724000020A9
:1056900010B5FAF733FE114910280ED300F1E020BF
:1056A00090F8F0030A78904207D2502080F31188D6
:1056B000BFF34F8FBFF36F8FFEE70948006889681B
:1056C00000F4E060884207D9502080F31188BFF3CE
:1056D0004F8FBFF36F8FFEE710BD00009C000020CE
:1056E0000CED00E010B5084B002200BF53F832402B
:1056F0001CB1521C082AF9D310BD43F8321003EB39
:10570000C201486010BD0000C00D002070B51546F4
:105710000E460446FFF744FF94F944100020491C4C
:1057200001D184F8440094F94510491C01D184F852
:105730004500FFF755FFA06B28B92A46314604F112
:10574000240000F051F82046BDE87040FFF7A4BDEA
:1057500010B5020014D00F48006B38B1502080F310
:105760001188BFF34F8FBFF36F8FFEE700F09CF8F7
:1057700000211046FFF7EEF900F090FD002807D158
:1057800005494FF080500860BFF34F8FBFF36F8F14
:1057900010BD00002800002004ED00E002490A6A64
:1057A0000260C9684160704728000020014901205B
:1057B000C86170472800002010B50C4650B1094957
:1057C00009681831FFF7C8FE2046BDE810400121E6
:1057D000FFF7C0B9502080F31188BFF34F8FBFF39C
:1057E0006F8FFEE72800002070B514460D4668B1A3
:1057F0000A4909681831FFF7C7FE0CB14FF0FF35B1
:1058000021462846BDE87040FFF7A4B9502080F338
:105810001188BFF34F8FBFF36F8FFEE72800002082
:1058200030B587B00024039405AA04A903A8049402
:10583000FFF76EFEDDE903010094CDE901100023BE
:1058400015A11748059A00F00DFC164D0028E862D6
:105850001FD000F085FD012809D0401C19D150202F
:1058600080F31188BFF34F8FBFF36F8FFEE7502097
:1058700080F31188BFF34F8FBFF36F8F4FF0FF306E
:10588000A86201206861EC6007B0BDE8304000F01C
:1058900045B807B030BD000049444C450000000049
:1058A000E94D0008280000200248016B491C0163F3
:1058B0007047000028000020164810B5016B11B198
:1058C0000121C16110BD0021C1610169124A01E0DD
:1058D000B9B1491E01EB810352F82330002BF7D0F8
:1058E00001EB810302EB830202F1080453685B6859
:1058F0005360A34201D15B685360DA6802600161C2
:1059000010BD502080F31188BFF34F8FBFF36F8F0E
:10591000FEE7000028000020000E00201CB53748DC
:105920000168374A914207D1502080F31188BFF3B4
:105930004F8FBFF36F8FFEE700683149491E8842E1
:1059400007D1502080F31188BFF34F8FBFF36F8FC3
:10595000FEE72C4908780190FF20087008788DF840
:1059600000009DF800009DF8002000F0F00090423B
:1059700007D0502080F31188BFF34F8FBFF36F8F94
:10598000FEE79DF80000204C00F05000207007203A
:10599000A06005E09DF8002052008DF80020401E18
:1059A0009DF800201206F5D4A060032807D05020EF
:1059B00080F31188BFF34F8FBFF36F8FFEE74FF473
:1059C0004070A060019808700C482030016841F4D4
:1059D00070010160016841F070410160FFF746FE0F
:1059E00000206060FAF752FC0848016841F040412D
:1059F0000160FAF737FC00201CBD000000ED00E05C
:105A000071C20F4100E400E09C00002034EF00E090
:105A100010B5502080F31188BFF34F8FBFF36F8F05
:105A200000F060FB18B104494FF08050086000207E
:105A300080F3118810BD000004ED00E010B50246AF
:105A40000021012000F012F80446FFF7FDF920467E
:105A500010BD38B50B46002200901146012000F021
:105A600026F80446FFF7F0F9204638BDF8B517468A
:105A70000E46050013D005FB06F05030FFF742FC40
:105A800004000AD0002084F8460004F150023B468E
:105A9000314628460094FFF7E3F92046F8BD502030
:105AA00080F31188BFF34F8FBFF36F8FFEE738B5D8
:105AB000049D18B153B1CAB181B120E0502080F3E8
:105AC0001188BFF34F8FBFF36F8FFEE7502080F335
:105AD0001188BFF34F8FBFF36F8FFEE7502080F325
